{
  "contractName": "MyToken",
  "abi": [
    {
      "inputs": [],
      "stateMutability": "nonpayable",
      "type": "constructor"
    },
    {
      "anonymous": false,
      "inputs": [
        {
          "indexed": true,
          "internalType": "address",
          "name": "owner",
          "type": "address"
        },
        {
          "indexed": true,
          "internalType": "address",
          "name": "spender",
          "type": "address"
        },
        {
          "indexed": false,
          "internalType": "uint256",
          "name": "value",
          "type": "uint256"
        }
      ],
      "name": "Approval",
      "type": "event"
    },
    {
      "anonymous": false,
      "inputs": [
        {
          "indexed": true,
          "internalType": "address",
          "name": "from",
          "type": "address"
        },
        {
          "indexed": true,
          "internalType": "address",
          "name": "to",
          "type": "address"
        },
        {
          "indexed": false,
          "internalType": "uint256",
          "name": "value",
          "type": "uint256"
        }
      ],
      "name": "Transfer",
      "type": "event"
    },
    {
      "inputs": [
        {
          "internalType": "address",
          "name": "owner",
          "type": "address"
        },
        {
          "internalType": "address",
          "name": "spender",
          "type": "address"
        }
      ],
      "name": "allowance",
      "outputs": [
        {
          "internalType": "uint256",
          "name": "",
          "type": "uint256"
        }
      ],
      "stateMutability": "view",
      "type": "function",
      "constant": true
    },
    {
      "inputs": [
        {
          "internalType": "address",
          "name": "spender",
          "type": "address"
        },
        {
          "internalType": "uint256",
          "name": "amount",
          "type": "uint256"
        }
      ],
      "name": "approve",
      "outputs": [
        {
          "internalType": "bool",
          "name": "",
          "type": "bool"
        }
      ],
      "stateMutability": "nonpayable",
      "type": "function"
    },
    {
      "inputs": [
        {
          "internalType": "address",
          "name": "account",
          "type": "address"
        }
      ],
      "name": "balanceOf",
      "outputs": [
        {
          "internalType": "uint256",
          "name": "",
          "type": "uint256"
        }
      ],
      "stateMutability": "view",
      "type": "function",
      "constant": true
    },
    {
      "inputs": [],
      "name": "decimals",
      "outputs": [
        {
          "internalType": "uint8",
          "name": "",
          "type": "uint8"
        }
      ],
      "stateMutability": "view",
      "type": "function",
      "constant": true
    },
    {
      "inputs": [
        {
          "internalType": "address",
          "name": "spender",
          "type": "address"
        },
        {
          "internalType": "uint256",
          "name": "subtractedValue",
          "type": "uint256"
        }
      ],
      "name": "decreaseAllowance",
      "outputs": [
        {
          "internalType": "bool",
          "name": "",
          "type": "bool"
        }
      ],
      "stateMutability": "nonpayable",
      "type": "function"
    },
    {
      "inputs": [
        {
          "internalType": "address",
          "name": "spender",
          "type": "address"
        },
        {
          "internalType": "uint256",
          "name": "addedValue",
          "type": "uint256"
        }
      ],
      "name": "increaseAllowance",
      "outputs": [
        {
          "internalType": "bool",
          "name": "",
          "type": "bool"
        }
      ],
      "stateMutability": "nonpayable",
      "type": "function"
    },
    {
      "inputs": [],
      "name": "name",
      "outputs": [
        {
          "internalType": "string",
          "name": "",
          "type": "string"
        }
      ],
      "stateMutability": "view",
      "type": "function",
      "constant": true
    },
    {
      "inputs": [],
      "name": "symbol",
      "outputs": [
        {
          "internalType": "string",
          "name": "",
          "type": "string"
        }
      ],
      "stateMutability": "view",
      "type": "function",
      "constant": true
    },
    {
      "inputs": [],
      "name": "totalSupply",
      "outputs": [
        {
          "internalType": "uint256",
          "name": "",
          "type": "uint256"
        }
      ],
      "stateMutability": "view",
      "type": "function",
      "constant": true
    },
    {
      "inputs": [
        {
          "internalType": "address",
          "name": "recipient",
          "type": "address"
        },
        {
          "internalType": "uint256",
          "name": "amount",
          "type": "uint256"
        }
      ],
      "name": "transfer",
      "outputs": [
        {
          "internalType": "bool",
          "name": "",
          "type": "bool"
        }
      ],
      "stateMutability": "nonpayable",
      "type": "function"
    },
    {
      "inputs": [
        {
          "internalType": "address",
          "name": "sender",
          "type": "address"
        },
        {
          "internalType": "address",
          "name": "recipient",
          "type": "address"
        },
        {
          "internalType": "uint256",
          "name": "amount",
          "type": "uint256"
        }
      ],
      "name": "transferFrom",
      "outputs": [
        {
          "internalType": "bool",
          "name": "",
          "type": "bool"
        }
      ],
      "stateMutability": "nonpayable",
      "type": "function"
    },
    {
      "inputs": [],
      "name": "getDEctmals",
      "outputs": [
        {
          "internalType": "uint256",
          "name": "",
          "type": "uint256"
        }
      ],
      "stateMutability": "view",
      "type": "function",
      "constant": true
    }
  ],
  "bytecode": "0x60806040523480156200001157600080fd5b506040518060400160405280600381526020017f64616900000000000000000000000000000000000000000000000000000000008152506040518060400160405280600381526020017f646169000000000000000000000000000000000000000000000000000000000081525081600390805190602001906200009692919062000284565b508060049080519060200190620000af92919062000284565b505050620000f233620000c7620000f860201b60201c565b60ff16600a620000d8919062000474565b6064620000e69190620005b1565b6200010160201b60201c565b620006e6565b60006012905090565b600073ffffffffffffffffffffffffffffffffffffffff168273ffffffffffffffffffffffffffffffffffffffff16141562000174576040517f08c379a00000000000000000000000000000000000000000000000000000000081526004016200016b906200036c565b60405180910390fd5b62000188600083836200027a60201b60201c565b80600260008282546200019c9190620003bc565b92505081905550806000808473ffffffffffffffffffffffffffffffffffffffff1673ffffffffffffffffffffffffffffffffffffffff1681526020019081526020016000206000828254620001f39190620003bc565b925050819055508173ffffffffffffffffffffffffffffffffffffffff16600073ffffffffffffffffffffffffffffffffffffffff167fddf252ad1be2c89b69c2b068fc378daa952ba7f163c4a11628f55a4df523b3ef836040516200025a91906200038e565b60405180910390a362000276600083836200027f60201b60201c565b5050565b505050565b505050565b82805462000292906200061c565b90600052602060002090601f016020900481019282620002b6576000855562000302565b82601f10620002d157805160ff191683800117855562000302565b8280016001018555821562000302579182015b8281111562000301578251825591602001919060010190620002e4565b5b50905062000311919062000315565b5090565b5b808211156200033057600081600090555060010162000316565b5090565b600062000343601f83620003ab565b91506200035082620006bd565b602082019050919050565b620003668162000612565b82525050565b60006020820190508181036000830152620003878162000334565b9050919050565b6000602082019050620003a560008301846200035b565b92915050565b600082825260208201905092915050565b6000620003c98262000612565b9150620003d68362000612565b9250827fffffffffffffffffffffffffffffffffffffffffffffffffffffffffffffffff038211156200040e576200040d62000652565b5b828201905092915050565b6000808291508390505b60018511156200046b5780860481111562000443576200044262000652565b5b6001851615620004535780820291505b80810290506200046385620006b0565b945062000423565b94509492505050565b6000620004818262000612565b91506200048e8362000612565b9250620004bd7fffffffffffffffffffffffffffffffffffffffffffffffffffffffffffffffff8484620004c5565b905092915050565b600082620004d75760019050620005aa565b81620004e75760009050620005aa565b81600181146200050057600281146200050b5762000541565b6001915050620005aa565b60ff84111562000520576200051f62000652565b5b8360020a9150848211156200053a576200053962000652565b5b50620005aa565b5060208310610133831016604e8410600b84101617156200057b5782820a90508381111562000575576200057462000652565b5b620005aa565b6200058a848484600162000419565b92509050818404811115620005a457620005a362000652565b5b81810290505b9392505050565b6000620005be8262000612565b9150620005cb8362000612565b9250817fffffffffffffffffffffffffffffffffffffffffffffffffffffffffffffffff048311821515161562000607576200060662000652565b5b828202905092915050565b6000819050919050565b600060028204905060018216806200063557607f821691505b602082108114156200064c576200064b62000681565b5b50919050565b7f4e487b7100000000000000000000000000000000000000000000000000000000600052601160045260246000fd5b7f4e487b7100000000000000000000000000000000000000000000000000000000600052602260045260246000fd5b60008160011c9050919050565b7f45524332303a206d696e7420746f20746865207a65726f206164647265737300600082015250565b6113e580620006f66000396000f3fe608060405234801561001057600080fd5b50600436106100b45760003560e01c806353df09a11161007157806353df09a1146101a357806370a08231146101c157806395d89b41146101f1578063a457c2d71461020f578063a9059cbb1461023f578063dd62ed3e1461026f576100b4565b806306fdde03146100b9578063095ea7b3146100d757806318160ddd1461010757806323b872dd14610125578063313ce567146101555780633950935114610173575b600080fd5b6100c161029f565b6040516100ce9190610e80565b60405180910390f35b6100f160048036038101906100ec9190610cca565b610331565b6040516100fe9190610e65565b60405180910390f35b61010f61034f565b60405161011c9190610f82565b60405180910390f35b61013f600480360381019061013a9190610c77565b610359565b60405161014c9190610e65565b60405180910390f35b61015d610451565b60405161016a9190610f9d565b60405180910390f35b61018d60048036038101906101889190610cca565b61045a565b60405161019a9190610e65565b60405180910390f35b6101ab610506565b6040516101b89190610f82565b60405180910390f35b6101db60048036038101906101d69190610c0a565b610518565b6040516101e89190610f82565b60405180910390f35b6101f9610560565b6040516102069190610e80565b60405180910390f35b61022960048036038101906102249190610cca565b6105f2565b6040516102369190610e65565b60405180910390f35b61025960048036038101906102549190610cca565b6106dd565b6040516102669190610e65565b60405180910390f35b61028960048036038101906102849190610c37565b6106fb565b6040516102969190610f82565b60405180910390f35b6060600380546102ae906110b2565b80601f01602080910402602001604051908101604052809291908181526020018280546102da906110b2565b80156103275780601f106102fc57610100808354040283529160200191610327565b820191906000526020600020905b81548152906001019060200180831161030a57829003601f168201915b5050505050905090565b600061034561033e610782565b848461078a565b6001905092915050565b6000600254905090565b6000610366848484610955565b6000600160008673ffffffffffffffffffffffffffffffffffffffff1673ffffffffffffffffffffffffffffffffffffffff16815260200190815260200160002060006103b1610782565b73ffffffffffffffffffffffffffffffffffffffff1673ffffffffffffffffffffffffffffffffffffffff16815260200190815260200160002054905082811015610431576040517f08c379a000000000000000000000000000000000000000000000000000000000815260040161042890610f02565b60405180910390fd5b6104458561043d610782565b85840361078a565b60019150509392505050565b60006012905090565b60006104fc610467610782565b848460016000610475610782565b73ffffffffffffffffffffffffffffffffffffffff1673ffffffffffffffffffffffffffffffffffffffff16815260200190815260200160002060008873ffffffffffffffffffffffffffffffffffffffff1673ffffffffffffffffffffffffffffffffffffffff168152602001908152602001600020546104f79190610fd4565b61078a565b6001905092915050565b6000610510610451565b60ff16905090565b60008060008373ffffffffffffffffffffffffffffffffffffffff1673ffffffffffffffffffffffffffffffffffffffff168152602001908152602001600020549050919050565b60606004805461056f906110b2565b80601f016020809104026020016040519081016040528092919081815260200182805461059b906110b2565b80156105e85780601f106105bd576101008083540402835291602001916105e8565b820191906000526020600020905b8154815290600101906020018083116105cb57829003601f168201915b5050505050905090565b60008060016000610601610782565b73ffffffffffffffffffffffffffffffffffffffff1673ffffffffffffffffffffffffffffffffffffffff16815260200190815260200160002060008573ffffffffffffffffffffffffffffffffffffffff1673ffffffffffffffffffffffffffffffffffffffff168152602001908152602001600020549050828110156106be576040517f08c379a00000000000000000000000000000000000000000000000000000000081526004016106b590610f62565b60405180910390fd5b6106d26106c9610782565b8585840361078a565b600191505092915050565b60006106f16106ea610782565b8484610955565b6001905092915050565b6000600160008473ffffffffffffffffffffffffffffffffffffffff1673ffffffffffffffffffffffffffffffffffffffff16815260200190815260200160002060008373ffffffffffffffffffffffffffffffffffffffff1673ffffffffffffffffffffffffffffffffffffffff16815260200190815260200160002054905092915050565b600033905090565b600073ffffffffffffffffffffffffffffffffffffffff168373ffffffffffffffffffffffffffffffffffffffff1614156107fa576040517f08c379a00000000000000000000000000000000000000000000000000000000081526004016107f190610f42565b60405180910390fd5b600073ffffffffffffffffffffffffffffffffffffffff168273ffffffffffffffffffffffffffffffffffffffff16141561086a576040517f08c379a000000000000000000000000000000000000000000000000000000000815260040161086190610ec2565b60405180910390fd5b80600160008573ffffffffffffffffffffffffffffffffffffffff1673ffffffffffffffffffffffffffffffffffffffff16815260200190815260200160002060008473ffffffffffffffffffffffffffffffffffffffff1673ffffffffffffffffffffffffffffffffffffffff168152602001908152602001600020819055508173ffffffffffffffffffffffffffffffffffffffff168373ffffffffffffffffffffffffffffffffffffffff167f8c5be1e5ebec7d5bd14f71427d1e84f3dd0314c0f7b2291e5b200ac8c7c3b925836040516109489190610f82565b60405180910390a3505050565b600073ffffffffffffffffffffffffffffffffffffffff168373ffffffffffffffffffffffffffffffffffffffff1614156109c5576040517f08c379a00000000000000000000000000000000000000000000000000000000081526004016109bc90610f22565b60405180910390fd5b600073ffffffffffffffffffffffffffffffffffffffff168273ffffffffffffffffffffffffffffffffffffffff161415610a35576040517f08c379a0000000000000000000000000000000000000000000000000000000008152600401610a2c90610ea2565b60405180910390fd5b610a40838383610bd6565b60008060008573ffffffffffffffffffffffffffffffffffffffff1673ffffffffffffffffffffffffffffffffffffffff16815260200190815260200160002054905081811015610ac6576040517f08c379a0000000000000000000000000000000000000000000000000000000008152600401610abd90610ee2565b60405180910390fd5b8181036000808673ffffffffffffffffffffffffffffffffffffffff1673ffffffffffffffffffffffffffffffffffffffff16815260200190815260200160002081905550816000808573ffffffffffffffffffffffffffffffffffffffff1673ffffffffffffffffffffffffffffffffffffffff1681526020019081526020016000206000828254610b599190610fd4565b925050819055508273ffffffffffffffffffffffffffffffffffffffff168473ffffffffffffffffffffffffffffffffffffffff167fddf252ad1be2c89b69c2b068fc378daa952ba7f163c4a11628f55a4df523b3ef84604051610bbd9190610f82565b60405180910390a3610bd0848484610bdb565b50505050565b505050565b505050565b600081359050610bef81611381565b92915050565b600081359050610c0481611398565b92915050565b600060208284031215610c2057610c1f611142565b5b6000610c2e84828501610be0565b91505092915050565b60008060408385031215610c4e57610c4d611142565b5b6000610c5c85828601610be0565b9250506020610c6d85828601610be0565b9150509250929050565b600080600060608486031215610c9057610c8f611142565b5b6000610c9e86828701610be0565b9350506020610caf86828701610be0565b9250506040610cc086828701610bf5565b9150509250925092565b60008060408385031215610ce157610ce0611142565b5b6000610cef85828601610be0565b9250506020610d0085828601610bf5565b9150509250929050565b610d138161103c565b82525050565b6000610d2482610fb8565b610d2e8185610fc3565b9350610d3e81856020860161107f565b610d4781611147565b840191505092915050565b6000610d5f602383610fc3565b9150610d6a82611158565b604082019050919050565b6000610d82602283610fc3565b9150610d8d826111a7565b604082019050919050565b6000610da5602683610fc3565b9150610db0826111f6565b604082019050919050565b6000610dc8602883610fc3565b9150610dd382611245565b604082019050919050565b6000610deb602583610fc3565b9150610df682611294565b604082019050919050565b6000610e0e602483610fc3565b9150610e19826112e3565b604082019050919050565b6000610e31602583610fc3565b9150610e3c82611332565b604082019050919050565b610e5081611068565b82525050565b610e5f81611072565b82525050565b6000602082019050610e7a6000830184610d0a565b92915050565b60006020820190508181036000830152610e9a8184610d19565b905092915050565b60006020820190508181036000830152610ebb81610d52565b9050919050565b60006020820190508181036000830152610edb81610d75565b9050919050565b60006020820190508181036000830152610efb81610d98565b9050919050565b60006020820190508181036000830152610f1b81610dbb565b9050919050565b60006020820190508181036000830152610f3b81610dde565b9050919050565b60006020820190508181036000830152610f5b81610e01565b9050919050565b60006020820190508181036000830152610f7b81610e24565b9050919050565b6000602082019050610f976000830184610e47565b92915050565b6000602082019050610fb26000830184610e56565b92915050565b600081519050919050565b600082825260208201905092915050565b6000610fdf82611068565b9150610fea83611068565b9250827fffffffffffffffffffffffffffffffffffffffffffffffffffffffffffffffff0382111561101f5761101e6110e4565b5b828201905092915050565b600061103582611048565b9050919050565b60008115159050919050565b600073ffffffffffffffffffffffffffffffffffffffff82169050919050565b6000819050919050565b600060ff82169050919050565b60005b8381101561109d578082015181840152602081019050611082565b838111156110ac576000848401525b50505050565b600060028204905060018216806110ca57607f821691505b602082108114156110de576110dd611113565b5b50919050565b7f4e487b7100000000000000000000000000000000000000000000000000000000600052601160045260246000fd5b7f4e487b7100000000000000000000000000000000000000000000000000000000600052602260045260246000fd5b600080fd5b6000601f19601f8301169050919050565b7f45524332303a207472616e7366657220746f20746865207a65726f206164647260008201527f6573730000000000000000000000000000000000000000000000000000000000602082015250565b7f45524332303a20617070726f766520746f20746865207a65726f20616464726560008201527f7373000000000000000000000000000000000000000000000000000000000000602082015250565b7f45524332303a207472616e7366657220616d6f756e742065786365656473206260008201527f616c616e63650000000000000000000000000000000000000000000000000000602082015250565b7f45524332303a207472616e7366657220616d6f756e742065786365656473206160008201527f6c6c6f77616e6365000000000000000000000000000000000000000000000000602082015250565b7f45524332303a207472616e736665722066726f6d20746865207a65726f20616460008201527f6472657373000000000000000000000000000000000000000000000000000000602082015250565b7f45524332303a20617070726f76652066726f6d20746865207a65726f2061646460008201527f7265737300000000000000000000000000000000000000000000000000000000602082015250565b7f45524332303a2064656372656173656420616c6c6f77616e63652062656c6f7760008201527f207a65726f000000000000000000000000000000000000000000000000000000602082015250565b61138a8161102a565b811461139557600080fd5b50565b6113a181611068565b81146113ac57600080fd5b5056fea2646970667358221220a90c58bacbf4a9d7341d7e00be54b7fafbc2ddac371cf7eaa51d90a4aa06373464736f6c63430008050033",
  "immutableReferences": {},
  "source": "//SPDX-License-Identifier: UNLICENSED\r\nimport \"../contracts copy/token/ERC20/ERC20.sol\";\r\npragma solidity ^0.8.0;\r\n\r\ncontract MyToken is ERC20 {\r\n    //constructor\r\n    constructor() ERC20(\"dai\", \"dai\") {\r\n        //\r\n        _mint(msg.sender, 100 * 10**uint256(decimals()));\r\n    }\r\n\r\n    function getDEctmals() public view returns (uint256) {\r\n        return decimals();\r\n    }\r\n}\r\n\r\ncontract NewsContract_daijiatao {\r\n    //\r\n    address public host_daijiatao;\r\n    //\r\n    // MyToken erc;\r\n\r\n    //\r\n    struct News_daijiatao {\r\n        address host;\r\n        string title;\r\n        string newsCxt;\r\n        uint256 accumulate;\r\n        uint256 newsKey;\r\n        bool exist;\r\n    }\r\n\r\n    //\r\n    struct news_reward {\r\n        address host;\r\n        address host_reward;\r\n        uint256 newsKey;\r\n        uint256 reward_money;\r\n        bool new_reward;\r\n        bool exist;\r\n        uint256 number;\r\n        //  mapping(uint =>News_daijiatao) newsData_daijiatao;\r\n    }\r\n    struct hosts_reward {\r\n        address host; //\r\n        uint256 newsKey; //\r\n    }\r\n    //\r\n    mapping(uint256 => News_daijiatao) public newsData_daijiatao;\r\n    mapping(uint256 => News_daijiatao[]) newsData_group_daijiatao;\r\n    mapping(address=>News_daijiatao[]) newsData_address_group_daijiatao;\r\n    //\r\n    mapping(uint256 => address) news_host_daijiatao;\r\n\r\n    //(uint)\r\n    mapping(uint256 => news_reward) newsData_reward;\r\n    mapping(uint256 => news_reward[]) newsData_group_reward;\r\n    mapping(uint256 => mapping(address => news_reward[])) newsData_group_rewardM;\r\n\r\n    //(address)\r\n    mapping(address => news_reward) news_address_reward;\r\n    mapping(address => news_reward[]) news_address_group_reward;\r\n\r\n    //\r\n    mapping(uint256 => hosts_reward) hostsData_reward;\r\n    mapping(uint256 => hosts_reward[]) hostsData_group_reward;\r\n    //\r\n    uint256 public newsCnt_daijiatao;\r\n    //Key\r\n\r\n    uint256 public maxRewardNews_daijiatao;\r\n\r\n    //\r\n    uint256 public reward;\r\n\r\n    //\r\n    event AddNewsEvt(string indexed eventType, uint256 newsKey);\r\n\r\n    //\r\n    event RewardEvt(string indexed eventType, address sender, uint256 value);\r\n\r\n    //\r\n    constructor() {\r\n        host_daijiatao = msg.sender;\r\n        // erc = MyToken(_erc20);\r\n    }\r\n\r\n    //\r\n    modifier onlyHost_daijiatao(uint256 newsKey) {\r\n        require(\r\n            msg.sender == news_host_daijiatao[newsKey],\r\n            \"only host can do this\"\r\n        );\r\n        _;\r\n    }\r\n\r\n   \r\n\r\n    //\r\n    function addNews(string memory title, string memory newsCxt)\r\n        public\r\n        returns (uint256)\r\n    {\r\n        newsCnt_daijiatao++;\r\n           newsData_daijiatao[newsCnt_daijiatao].newsKey=newsCnt_daijiatao;\r\n        newsData_daijiatao[newsCnt_daijiatao].host = msg.sender;\r\n        newsData_daijiatao[newsCnt_daijiatao].title = title;\r\n        newsData_daijiatao[newsCnt_daijiatao].newsCxt = newsCxt;\r\n        newsData_daijiatao[newsCnt_daijiatao].accumulate = 0;\r\n        newsData_daijiatao[newsCnt_daijiatao].exist = true;\r\n\r\n        newsData_group_daijiatao[1].push(\r\n            newsData_daijiatao[newsCnt_daijiatao]\r\n        );\r\n        newsData_address_group_daijiatao[msg.sender].push( newsData_daijiatao[newsCnt_daijiatao]);\r\n        news_host_daijiatao[newsCnt_daijiatao] = msg.sender;\r\n\r\n\r\n        emit AddNewsEvt(\"NewsAdd\", newsCnt_daijiatao);\r\n        return newsCnt_daijiatao;\r\n    }\r\n\r\n    //\r\n    function rewardNews(uint256 newsKey) public  payable {\r\n \r\n        //\r\n        require(msg.sender !=newsData_daijiatao[newsKey].host, \"host can not reward himself\");\r\n\r\n        //0\r\n            require(msg.value > 0, \"reward value need grater than 0\");\r\n\r\n        //\r\n        require(newsData_daijiatao[newsKey].exist, \"news not exist\");\r\n\r\n        //\r\n        newsData_daijiatao[newsKey].accumulate += msg.value;\r\n   \r\n         newsData_address_group_daijiatao[newsData_daijiatao[newsKey].host][newsKey-1].accumulate +=msg.value;\r\n        //\r\n        if (\r\n            newsData_daijiatao[newsKey].accumulate >\r\n            newsData_daijiatao[maxRewardNews_daijiatao].accumulate\r\n        ) {\r\n            maxRewardNews_daijiatao = newsKey;\r\n        }\r\n        if (news_address_reward[msg.sender].exist != true) {\r\n            hostsData_reward[newsKey].host = msg.sender;\r\n            hostsData_group_reward[newsKey].push(hostsData_reward[newsKey]);\r\n        }\r\n   \r\n\r\n        news_address_reward[msg.sender].newsKey = newsKey;\r\n        news_address_reward[msg.sender].host = news_host_daijiatao[newsKey];\r\n        news_address_reward[msg.sender].host_reward = msg.sender;\r\n        news_address_reward[msg.sender].reward_money += msg.value;\r\n        news_address_reward[msg.sender].exist = true;\r\n        news_address_reward[msg.sender].number += 1;\r\n        news_address_group_reward[msg.sender].push(\r\n            news_address_reward[msg.sender]\r\n        );\r\n\r\n        newsData_reward[newsKey].newsKey = newsKey;\r\n        newsData_reward[newsKey].host = news_host_daijiatao[newsKey];\r\n        newsData_reward[newsKey].host_reward = msg.sender;\r\n        newsData_reward[newsKey].reward_money += msg.value;\r\n        newsData_reward[newsKey].exist = true;\r\n        newsData_reward[newsKey].number += 1;\r\n\r\n        newsData_group_reward[newsKey].push(newsData_reward[newsKey]);\r\n        newsData_group_rewardM[newsKey][msg.sender].push(\r\n            news_address_reward[msg.sender]\r\n        );\r\n\r\n        reward++;\r\n\r\n\r\n        //\r\n        emit RewardEvt(\"Reward\", msg.sender, msg.value);\r\n    }\r\n\r\n    // \r\n    function returnMoney(uint256 ID) public returns (address) {\r\n        //\r\n        require(ID <= newsCnt_daijiatao && ID >= 1);\r\n        //\r\n        require(newsData_reward[ID].exist == true);\r\n\r\n        news_reward[] storage f = newsData_group_rewardM[ID][msg.sender];\r\n        // for(uint i=; i<=news_reward; i++)\r\n        if (f[0].host_reward == msg.sender) {\r\n            //    payable(f[f.length-1].host_reward).transfer(f[f.length-1].reward_money);\r\n            newsData_daijiatao[ID].accumulate -= f[f.length - 1].reward_money;\r\n            payable(f[f.length - 1].host_reward).transfer(f[f.length - 1].reward_money);\r\n            f[f.length - 1].reward_money = 0;\r\n             newsData_address_group_daijiatao[newsData_daijiatao[ID].host][ID-1].accumulate -=news_address_reward[msg.sender].reward_money;\r\n\r\n        }\r\n\r\n        return f[f.length - 1].host_reward;\r\n    }\r\n\r\n\r\n  //\r\n    function isNewsExist(uint256 newsKey) public view returns (bool) {\r\n        return newsData_daijiatao[newsKey].exist;\r\n    }\r\n    //\r\n     function newsData_addNews_group() public view returns (News_daijiatao[] memory) {\r\n        return newsData_group_daijiatao[1];\r\n    }\r\n\r\n  \r\n//\r\n     function newsData_address_group(address a) public view returns (News_daijiatao[] memory) {\r\n        return (newsData_address_group_daijiatao[a]);\r\n    }\r\n\r\n\r\n \r\n\r\n//\r\n    function queryRewardAddressAll(uint256 newsKey)\r\n        public\r\n        view\r\n        returns (hosts_reward[] memory)\r\n    {\r\n        //\r\n        require(newsData_reward[newsKey].exist, \"news not exist\");\r\n        return hostsData_group_reward[newsKey];\r\n    }\r\n\r\n    //\r\n    function queryCtx(uint256 newsKey)\r\n        public\r\n        view\r\n        returns (string memory)\r\n    {\r\n        //\r\n        require(newsData_daijiatao[newsKey].exist, \"news not exist\");\r\n        return (newsData_daijiatao[newsKey].newsCxt);\r\n    }\r\n\r\n    //\r\n    function queryReward_Money(uint256 newsKey) public view returns (uint256) {\r\n        //\r\n        require(newsData_reward[newsKey].exist, \"news not exist\");\r\n        return newsData_daijiatao[newsKey].accumulate;\r\n    }\r\n      //\r\n    function queryRewarUintdAll(uint256 newsKey)\r\n        public\r\n        view\r\n        returns (news_reward[] memory)\r\n    {\r\n        //\r\n        require(newsData_reward[newsKey].exist, \"news not exist\");\r\n        news_reward[] memory group = newsData_group_reward[newsKey];\r\n        return group;\r\n    }\r\n\r\n\r\n\r\n    //\r\n    function getReward(uint256 newsKey) public onlyHost_daijiatao(newsKey) {\r\n      require(  newsData_reward[newsKey].exist == true);\r\n        payable(newsData_daijiatao[newsKey].host).transfer(newsData_daijiatao[newsKey].accumulate);\r\n    }\r\n}\r\n ",
  "sourcePath": "C:\\Users\\HuaWei\\Desktop\\\\\\truffle\\contracts\\news.sol",
  "compiler": {
    "name": "solc",
    "version": "0.8.5+commit.a4f2e591.Emscripten.clang"
  },
  "schemaVersion": "3.4.3",
  "updatedAt": "2021-12-11T16:29:23.572Z",
  "networkType": "ethereum",
  "devdoc": {
    "kind": "dev",
    "methods": {
      "allowance(address,address)": {
        "details": "See {IERC20-allowance}."
      },
      "approve(address,uint256)": {
        "details": "See {IERC20-approve}. Requirements: - `spender` cannot be the zero address."
      },
      "balanceOf(address)": {
        "details": "See {IERC20-balanceOf}."
      },
      "decimals()": {
        "details": "Returns the number of decimals used to get its user representation. For example, if `decimals` equals `2`, a balance of `505` tokens should be displayed to a user as `5.05` (`505 / 10 ** 2`). Tokens usually opt for a value of 18, imitating the relationship between Ether and Wei. This is the value {ERC20} uses, unless this function is overridden; NOTE: This information is only used for _display_ purposes: it in no way affects any of the arithmetic of the contract, including {IERC20-balanceOf} and {IERC20-transfer}."
      },
      "decreaseAllowance(address,uint256)": {
        "details": "Atomically decreases the allowance granted to `spender` by the caller. This is an alternative to {approve} that can be used as a mitigation for problems described in {IERC20-approve}. Emits an {Approval} event indicating the updated allowance. Requirements: - `spender` cannot be the zero address. - `spender` must have allowance for the caller of at least `subtractedValue`."
      },
      "increaseAllowance(address,uint256)": {
        "details": "Atomically increases the allowance granted to `spender` by the caller. This is an alternative to {approve} that can be used as a mitigation for problems described in {IERC20-approve}. Emits an {Approval} event indicating the updated allowance. Requirements: - `spender` cannot be the zero address."
      },
      "name()": {
        "details": "Returns the name of the token."
      },
      "symbol()": {
        "details": "Returns the symbol of the token, usually a shorter version of the name."
      },
      "totalSupply()": {
        "details": "See {IERC20-totalSupply}."
      },
      "transfer(address,uint256)": {
        "details": "See {IERC20-transfer}. Requirements: - `recipient` cannot be the zero address. - the caller must have a balance of at least `amount`."
      },
      "transferFrom(address,address,uint256)": {
        "details": "See {IERC20-transferFrom}. Emits an {Approval} event indicating the updated allowance. This is not required by the EIP. See the note at the beginning of {ERC20}. Requirements: - `sender` and `recipient` cannot be the zero address. - `sender` must have a balance of at least `amount`. - the caller must have allowance for ``sender``'s tokens of at least `amount`."
      }
    },
    "version": 1
  },
  "userdoc": {
    "kind": "user",
    "methods": {},
    "version": 1
  }
}