{
  "contractName": "NewsContract_daijiatao",
  "abi": [
    {
      "inputs": [],
      "stateMutability": "nonpayable",
      "type": "constructor"
    },
    {
      "anonymous": false,
      "inputs": [
        {
          "indexed": true,
          "internalType": "string",
          "name": "eventType",
          "type": "string"
        },
        {
          "indexed": false,
          "internalType": "uint256",
          "name": "newsKey",
          "type": "uint256"
        }
      ],
      "name": "AddNewsEvt",
      "type": "event"
    },
    {
      "anonymous": false,
      "inputs": [
        {
          "indexed": true,
          "internalType": "string",
          "name": "eventType",
          "type": "string"
        },
        {
          "indexed": false,
          "internalType": "address",
          "name": "sender",
          "type": "address"
        },
        {
          "indexed": false,
          "internalType": "uint256",
          "name": "value",
          "type": "uint256"
        }
      ],
      "name": "RewardEvt",
      "type": "event"
    },
    {
      "inputs": [],
      "name": "host_daijiatao",
      "outputs": [
        {
          "internalType": "address",
          "name": "",
          "type": "address"
        }
      ],
      "stateMutability": "view",
      "type": "function",
      "constant": true
    },
    {
      "inputs": [],
      "name": "maxRewardNews_daijiatao",
      "outputs": [
        {
          "internalType": "uint256",
          "name": "",
          "type": "uint256"
        }
      ],
      "stateMutability": "view",
      "type": "function",
      "constant": true
    },
    {
      "inputs": [],
      "name": "newsCnt_daijiatao",
      "outputs": [
        {
          "internalType": "uint256",
          "name": "",
          "type": "uint256"
        }
      ],
      "stateMutability": "view",
      "type": "function",
      "constant": true
    },
    {
      "inputs": [
        {
          "internalType": "uint256",
          "name": "",
          "type": "uint256"
        }
      ],
      "name": "newsData_daijiatao",
      "outputs": [
        {
          "internalType": "address",
          "name": "host",
          "type": "address"
        },
        {
          "internalType": "string",
          "name": "title",
          "type": "string"
        },
        {
          "internalType": "string",
          "name": "newsCxt",
          "type": "string"
        },
        {
          "internalType": "uint256",
          "name": "accumulate",
          "type": "uint256"
        },
        {
          "internalType": "uint256",
          "name": "newsKey",
          "type": "uint256"
        },
        {
          "internalType": "bool",
          "name": "exist",
          "type": "bool"
        }
      ],
      "stateMutability": "view",
      "type": "function",
      "constant": true
    },
    {
      "inputs": [],
      "name": "reward",
      "outputs": [
        {
          "internalType": "uint256",
          "name": "",
          "type": "uint256"
        }
      ],
      "stateMutability": "view",
      "type": "function",
      "constant": true
    },
    {
      "inputs": [
        {
          "internalType": "string",
          "name": "title",
          "type": "string"
        },
        {
          "internalType": "string",
          "name": "newsCxt",
          "type": "string"
        }
      ],
      "name": "addNews",
      "outputs": [
        {
          "internalType": "uint256",
          "name": "",
          "type": "uint256"
        }
      ],
      "stateMutability": "nonpayable",
      "type": "function"
    },
    {
      "inputs": [
        {
          "internalType": "uint256",
          "name": "newsKey",
          "type": "uint256"
        }
      ],
      "name": "rewardNews",
      "outputs": [],
      "stateMutability": "payable",
      "type": "function",
      "payable": true
    },
    {
      "inputs": [
        {
          "internalType": "uint256",
          "name": "ID",
          "type": "uint256"
        }
      ],
      "name": "returnMoney",
      "outputs": [
        {
          "internalType": "address",
          "name": "",
          "type": "address"
        }
      ],
      "stateMutability": "nonpayable",
      "type": "function"
    },
    {
      "inputs": [
        {
          "internalType": "uint256",
          "name": "newsKey",
          "type": "uint256"
        }
      ],
      "name": "isNewsExist",
      "outputs": [
        {
          "internalType": "bool",
          "name": "",
          "type": "bool"
        }
      ],
      "stateMutability": "view",
      "type": "function",
      "constant": true
    },
    {
      "inputs": [],
      "name": "newsData_addNews_group",
      "outputs": [
        {
          "components": [
            {
              "internalType": "address",
              "name": "host",
              "type": "address"
            },
            {
              "internalType": "string",
              "name": "title",
              "type": "string"
            },
            {
              "internalType": "string",
              "name": "newsCxt",
              "type": "string"
            },
            {
              "internalType": "uint256",
              "name": "accumulate",
              "type": "uint256"
            },
            {
              "internalType": "uint256",
              "name": "newsKey",
              "type": "uint256"
            },
            {
              "internalType": "bool",
              "name": "exist",
              "type": "bool"
            }
          ],
          "internalType": "struct NewsContract_daijiatao.News_daijiatao[]",
          "name": "",
          "type": "tuple[]"
        }
      ],
      "stateMutability": "view",
      "type": "function",
      "constant": true
    },
    {
      "inputs": [
        {
          "internalType": "address",
          "name": "a",
          "type": "address"
        }
      ],
      "name": "newsData_address_group",
      "outputs": [
        {
          "components": [
            {
              "internalType": "address",
              "name": "host",
              "type": "address"
            },
            {
              "internalType": "string",
              "name": "title",
              "type": "string"
            },
            {
              "internalType": "string",
              "name": "newsCxt",
              "type": "string"
            },
            {
              "internalType": "uint256",
              "name": "accumulate",
              "type": "uint256"
            },
            {
              "internalType": "uint256",
              "name": "newsKey",
              "type": "uint256"
            },
            {
              "internalType": "bool",
              "name": "exist",
              "type": "bool"
            }
          ],
          "internalType": "struct NewsContract_daijiatao.News_daijiatao[]",
          "name": "",
          "type": "tuple[]"
        }
      ],
      "stateMutability": "view",
      "type": "function",
      "constant": true
    },
    {
      "inputs": [
        {
          "internalType": "uint256",
          "name": "newsKey",
          "type": "uint256"
        }
      ],
      "name": "queryRewardAddressAll",
      "outputs": [
        {
          "components": [
            {
              "internalType": "address",
              "name": "host",
              "type": "address"
            },
            {
              "internalType": "uint256",
              "name": "newsKey",
              "type": "uint256"
            }
          ],
          "internalType": "struct NewsContract_daijiatao.hosts_reward[]",
          "name": "",
          "type": "tuple[]"
        }
      ],
      "stateMutability": "view",
      "type": "function",
      "constant": true
    },
    {
      "inputs": [
        {
          "internalType": "uint256",
          "name": "newsKey",
          "type": "uint256"
        }
      ],
      "name": "queryCtx",
      "outputs": [
        {
          "internalType": "string",
          "name": "",
          "type": "string"
        }
      ],
      "stateMutability": "view",
      "type": "function",
      "constant": true
    },
    {
      "inputs": [
        {
          "internalType": "uint256",
          "name": "newsKey",
          "type": "uint256"
        }
      ],
      "name": "queryReward_Money",
      "outputs": [
        {
          "internalType": "uint256",
          "name": "",
          "type": "uint256"
        }
      ],
      "stateMutability": "view",
      "type": "function",
      "constant": true
    },
    {
      "inputs": [
        {
          "internalType": "uint256",
          "name": "newsKey",
          "type": "uint256"
        }
      ],
      "name": "queryRewarUintdAll",
      "outputs": [
        {
          "components": [
            {
              "internalType": "address",
              "name": "host",
              "type": "address"
            },
            {
              "internalType": "address",
              "name": "host_reward",
              "type": "address"
            },
            {
              "internalType": "uint256",
              "name": "newsKey",
              "type": "uint256"
            },
            {
              "internalType": "uint256",
              "name": "reward_money",
              "type": "uint256"
            },
            {
              "internalType": "bool",
              "name": "new_reward",
              "type": "bool"
            },
            {
              "internalType": "bool",
              "name": "exist",
              "type": "bool"
            },
            {
              "internalType": "uint256",
              "name": "number",
              "type": "uint256"
            }
          ],
          "internalType": "struct NewsContract_daijiatao.news_reward[]",
          "name": "",
          "type": "tuple[]"
        }
      ],
      "stateMutability": "view",
      "type": "function",
      "constant": true
    },
    {
      "inputs": [
        {
          "internalType": "uint256",
          "name": "newsKey",
          "type": "uint256"
        }
      ],
      "name": "getReward",
      "outputs": [],
      "stateMutability": "nonpayable",
      "type": "function"
    }
  ],
  "bytecode": "0x608060405234801561001057600080fd5b50336000806101000a81548173ffffffffffffffffffffffffffffffffffffffff021916908373ffffffffffffffffffffffffffffffffffffffff16021790555061351a806100606000396000f3fe6080604052600436106100f35760003560e01c80638033b60b1161008a5780639f7f6e5d116100595780639f7f6e5d14610380578063ba6d6b33146103ab578063c4c8a909146103e8578063ddadc59914610413576100f3565b80638033b60b146102bf57806380ec938e146102db57806381340e8d146103185780639ccb607914610355576100f3565b80633785fc1a116100c65780633785fc1a146101c6578063426c592514610203578063459a3f40146102405780637e478c301461027d576100f3565b8063107db823146100f85780631c4b774b14610135578063228cb7331461015e578063273afff014610189575b600080fd5b34801561010457600080fd5b5061011f600480360381019061011a9190612899565b61043e565b60405161012c9190612ea8565b60405180910390f35b34801561014157600080fd5b5061015c6004803603810190610157919061293e565b610685565b005b34801561016a57600080fd5b506101736107f2565b6040516101809190612fcb565b60405180910390f35b34801561019557600080fd5b506101b060048036038101906101ab919061293e565b6107f8565b6040516101bd9190612f0e565b60405180910390f35b3480156101d257600080fd5b506101ed60048036038101906101e8919061293e565b610825565b6040516101fa9190612df5565b60405180910390f35b34801561020f57600080fd5b5061022a6004803603810190610225919061293e565b610c09565b6040516102379190612eca565b60405180910390f35b34801561024c57600080fd5b506102676004803603810190610262919061293e565b610d3e565b6040516102749190612eec565b60405180910390f35b34801561028957600080fd5b506102a4600480360381019061029f919061293e565b610f19565b6040516102b696959493929190612e10565b60405180910390f35b6102d960048036038101906102d4919061293e565b611092565b005b3480156102e757600080fd5b5061030260048036038101906102fd91906128c6565b611e70565b60405161030f9190612fcb565b60405180910390f35b34801561032457600080fd5b5061033f600480360381019061033a919061293e565b6122f7565b60405161034c9190612f29565b60405180910390f35b34801561036157600080fd5b5061036a612402565b6040516103779190612df5565b60405180910390f35b34801561038c57600080fd5b50610395612426565b6040516103a29190612fcb565b60405180910390f35b3480156103b757600080fd5b506103d260048036038101906103cd919061293e565b61242c565b6040516103df9190612fcb565b60405180910390f35b3480156103f457600080fd5b506103fd6124af565b60405161040a9190612fcb565b60405180910390f35b34801561041f57600080fd5b506104286124b5565b6040516104359190612ea8565b60405180910390f35b6060600360008373ffffffffffffffffffffffffffffffffffffffff1673ffffffffffffffffffffffffffffffffffffffff168152602001908152602001600020805480602002602001604051908101604052809291908181526020016000905b8282101561067a57838290600052602060002090600602016040518060c00160405290816000820160009054906101000a900473ffffffffffffffffffffffffffffffffffffffff1673ffffffffffffffffffffffffffffffffffffffff1673ffffffffffffffffffffffffffffffffffffffff16815260200160018201805461052890613233565b80601f016020809104026020016040519081016040528092919081815260200182805461055490613233565b80156105a15780601f10610576576101008083540402835291602001916105a1565b820191906000526020600020905b81548152906001019060200180831161058457829003601f168201915b505050505081526020016002820180546105ba90613233565b80601f01602080910402602001604051908101604052809291908181526020018280546105e690613233565b80156106335780601f1061060857610100808354040283529160200191610633565b820191906000526020600020905b81548152906001019060200180831161061657829003601f168201915b5050505050815260200160038201548152602001600482015481526020016005820160009054906101000a900460ff1615151515815250508152602001906001019061049f565b505050509050919050565b806004600082815260200190815260200160002060009054906101000a900473ffffffffffffffffffffffffffffffffffffffff1673ffffffffffffffffffffffffffffffffffffffff163373ffffffffffffffffffffffffffffffffffffffff1614610727576040517f08c379a000000000000000000000000000000000000000000000000000000000815260040161071e90612f8b565b60405180910390fd5b600115156005600084815260200190815260200160002060040160019054906101000a900460ff1615151461075b57600080fd5b6001600083815260200190815260200160002060000160009054906101000a900473ffffffffffffffffffffffffffffffffffffffff1673ffffffffffffffffffffffffffffffffffffffff166108fc60016000858152602001908152602001600020600301549081150290604051600060405180830381858888f193505050501580156107ed573d6000803e3d6000fd5b505050565b600e5481565b60006001600083815260200190815260200160002060050160009054906101000a900460ff169050919050565b6000600c54821115801561083a575060018210155b61084357600080fd5b600115156005600084815260200190815260200160002060040160019054906101000a900460ff1615151461087757600080fd5b60006007600084815260200190815260200160002060003373ffffffffffffffffffffffffffffffffffffffff1673ffffffffffffffffffffffffffffffffffffffff16815260200190815260200160002090503373ffffffffffffffffffffffffffffffffffffffff16816000815481106108f6576108f561333d565b5b906000526020600020906006020160010160009054906101000a900473ffffffffffffffffffffffffffffffffffffffff1673ffffffffffffffffffffffffffffffffffffffff161415610bac5780600182805490506109569190613175565b815481106109675761096661333d565b5b90600052602060002090600602016003015460016000858152602001908152602001600020600301600082825461099e9190613175565b9250508190555080600182805490506109b79190613175565b815481106109c8576109c761333d565b5b906000526020600020906006020160010160009054906101000a900473ffffffffffffffffffffffffffffffffffffffff1673ffffffffffffffffffffffffffffffffffffffff166108fc8260018480549050610a259190613175565b81548110610a3657610a3561333d565b5b9060005260206000209060060201600301549081150290604051600060405180830381858888f19350505050158015610a73573d6000803e3d6000fd5b5060008160018380549050610a889190613175565b81548110610a9957610a9861333d565b5b906000526020600020906006020160030181905550600860003373ffffffffffffffffffffffffffffffffffffffff1673ffffffffffffffffffffffffffffffffffffffff16815260200190815260200160002060030154600360006001600087815260200190815260200160002060000160009054906101000a900473ffffffffffffffffffffffffffffffffffffffff1673ffffffffffffffffffffffffffffffffffffffff1673ffffffffffffffffffffffffffffffffffffffff168152602001908152602001600020600185610b739190613175565b81548110610b8457610b8361333d565b5b90600052602060002090600602016003016000828254610ba49190613175565b925050819055505b8060018280549050610bbe9190613175565b81548110610bcf57610bce61333d565b5b906000526020600020906006020160010160009054906101000a900473ffffffffffffffffffffffffffffffffffffffff16915050919050565b60606005600083815260200190815260200160002060040160019054906101000a900460ff16610c6e576040517f08c379a0000000000000000000000000000000000000000000000000000000008152600401610c6590612f4b565b60405180910390fd5b600b6000838152602001908152602001600020805480602002602001604051908101604052809291908181526020016000905b82821015610d3357838290600052602060002090600202016040518060400160405290816000820160009054906101000a900473ffffffffffffffffffffffffffffffffffffffff1673ffffffffffffffffffffffffffffffffffffffff1673ffffffffffffffffffffffffffffffffffffffff16815260200160018201548152505081526020019060010190610ca1565b505050509050919050565b60606005600083815260200190815260200160002060040160019054906101000a900460ff16610da3576040517f08c379a0000000000000000000000000000000000000000000000000000000008152600401610d9a90612f4b565b60405180910390fd5b600060066000848152602001908152602001600020805480602002602001604051908101604052809291908181526020016000905b82821015610f0a57838290600052602060002090600602016040518060e00160405290816000820160009054906101000a900473ffffffffffffffffffffffffffffffffffffffff1673ffffffffffffffffffffffffffffffffffffffff1673ffffffffffffffffffffffffffffffffffffffff1681526020016001820160009054906101000a900473ffffffffffffffffffffffffffffffffffffffff1673ffffffffffffffffffffffffffffffffffffffff1673ffffffffffffffffffffffffffffffffffffffff16815260200160028201548152602001600382015481526020016004820160009054906101000a900460ff161515151581526020016004820160019054906101000a900460ff1615151515815260200160058201548152505081526020019060010190610dd8565b50505050905080915050919050565b60016020528060005260406000206000915090508060000160009054906101000a900473ffffffffffffffffffffffffffffffffffffffff1690806001018054610f6290613233565b80601f0160208091040260200160405190810160405280929190818152602001828054610f8e90613233565b8015610fdb5780601f10610fb057610100808354040283529160200191610fdb565b820191906000526020600020905b815481529060010190602001808311610fbe57829003601f168201915b505050505090806002018054610ff090613233565b80601f016020809104026020016040519081016040528092919081815260200182805461101c90613233565b80156110695780601f1061103e57610100808354040283529160200191611069565b820191906000526020600020905b81548152906001019060200180831161104c57829003601f168201915b5050505050908060030154908060040154908060050160009054906101000a900460ff16905086565b6001600082815260200190815260200160002060000160009054906101000a900473ffffffffffffffffffffffffffffffffffffffff1673ffffffffffffffffffffffffffffffffffffffff163373ffffffffffffffffffffffffffffffffffffffff161415611137576040517f08c379a000000000000000000000000000000000000000000000000000000000815260040161112e90612fab565b60405180910390fd5b6000341161117a576040517f08c379a000000000000000000000000000000000000000000000000000000000815260040161117190612f6b565b60405180910390fd5b6001600082815260200190815260200160002060050160009054906101000a900460ff166111dd576040517f08c379a00000000000000000000000000000000000000000000000000000000081526004016111d490612f4b565b60405180910390fd5b34600160008381526020019081526020016000206003016000828254611203919061311f565b9250508190555034600360006001600085815260200190815260200160002060000160009054906101000a900473ffffffffffffffffffffffffffffffffffffffff1673ffffffffffffffffffffffffffffffffffffffff1673ffffffffffffffffffffffffffffffffffffffff16815260200190815260200160002060018361128d9190613175565b8154811061129e5761129d61333d565b5b906000526020600020906006020160030160008282546112be919061311f565b9250508190555060016000600d54815260200190815260200160002060030154600160008381526020019081526020016000206003015411156113035780600d819055505b60011515600860003373ffffffffffffffffffffffffffffffffffffffff1673ffffffffffffffffffffffffffffffffffffffff16815260200190815260200160002060040160019054906101000a900460ff161515146114765733600a600083815260200190815260200160002060000160006101000a81548173ffffffffffffffffffffffffffffffffffffffff021916908373ffffffffffffffffffffffffffffffffffffffff160217905550600b6000828152602001908152602001600020600a600083815260200190815260200160002090806001815401808255809150506001900390600052602060002090600202016000909190919091506000820160009054906101000a900473ffffffffffffffffffffffffffffffffffffffff168160000160006101000a81548173ffffffffffffffffffffffffffffffffffffffff021916908373ffffffffffffffffffffffffffffffffffffffff1602179055506001820154816001015550505b80600860003373ffffffffffffffffffffffffffffffffffffffff1673ffffffffffffffffffffffffffffffffffffffff168152602001908152602001600020600201819055506004600082815260200190815260200160002060009054906101000a900473ffffffffffffffffffffffffffffffffffffffff16600860003373ffffffffffffffffffffffffffffffffffffffff1673ffffffffffffffffffffffffffffffffffffffff16815260200190815260200160002060000160006101000a81548173ffffffffffffffffffffffffffffffffffffffff021916908373ffffffffffffffffffffffffffffffffffffffff16021790555033600860003373ffffffffffffffffffffffffffffffffffffffff1673ffffffffffffffffffffffffffffffffffffffff16815260200190815260200160002060010160006101000a81548173ffffffffffffffffffffffffffffffffffffffff021916908373ffffffffffffffffffffffffffffffffffffffff16021790555034600860003373ffffffffffffffffffffffffffffffffffffffff1673ffffffffffffffffffffffffffffffffffffffff1681526020019081526020016000206003016000828254611644919061311f565b925050819055506001600860003373ffffffffffffffffffffffffffffffffffffffff1673ffffffffffffffffffffffffffffffffffffffff16815260200190815260200160002060040160016101000a81548160ff0219169083151502179055506001600860003373ffffffffffffffffffffffffffffffffffffffff1673ffffffffffffffffffffffffffffffffffffffff16815260200190815260200160002060050160008282546116f9919061311f565b92505081905550600960003373ffffffffffffffffffffffffffffffffffffffff1673ffffffffffffffffffffffffffffffffffffffff168152602001908152602001600020600860003373ffffffffffffffffffffffffffffffffffffffff1673ffffffffffffffffffffffffffffffffffffffff16815260200190815260200160002090806001815401808255809150506001900390600052602060002090600602016000909190919091506000820160009054906101000a900473ffffffffffffffffffffffffffffffffffffffff168160000160006101000a81548173ffffffffffffffffffffffffffffffffffffffff021916908373ffffffffffffffffffffffffffffffffffffffff1602179055506001820160009054906101000a900473ffffffffffffffffffffffffffffffffffffffff168160010160006101000a81548173ffffffffffffffffffffffffffffffffffffffff021916908373ffffffffffffffffffffffffffffffffffffffff16021790555060028201548160020155600382015481600301556004820160009054906101000a900460ff168160040160006101000a81548160ff0219169083151502179055506004820160019054906101000a900460ff168160040160016101000a81548160ff0219169083151502179055506005820154816005015550508060056000838152602001908152602001600020600201819055506004600082815260200190815260200160002060009054906101000a900473ffffffffffffffffffffffffffffffffffffffff166005600083815260200190815260200160002060000160006101000a81548173ffffffffffffffffffffffffffffffffffffffff021916908373ffffffffffffffffffffffffffffffffffffffff160217905550336005600083815260200190815260200160002060010160006101000a81548173ffffffffffffffffffffffffffffffffffffffff021916908373ffffffffffffffffffffffffffffffffffffffff16021790555034600560008381526020019081526020016000206003016000828254611a0d919061311f565b9250508190555060016005600083815260200190815260200160002060040160016101000a81548160ff0219169083151502179055506001600560008381526020019081526020016000206005016000828254611a6a919061311f565b92505081905550600660008281526020019081526020016000206005600083815260200190815260200160002090806001815401808255809150506001900390600052602060002090600602016000909190919091506000820160009054906101000a900473ffffffffffffffffffffffffffffffffffffffff168160000160006101000a81548173ffffffffffffffffffffffffffffffffffffffff021916908373ffffffffffffffffffffffffffffffffffffffff1602179055506001820160009054906101000a900473ffffffffffffffffffffffffffffffffffffffff168160010160006101000a81548173ffffffffffffffffffffffffffffffffffffffff021916908373ffffffffffffffffffffffffffffffffffffffff16021790555060028201548160020155600382015481600301556004820160009054906101000a900460ff168160040160006101000a81548160ff0219169083151502179055506004820160019054906101000a900460ff168160040160016101000a81548160ff0219169083151502179055506005820154816005015550506007600082815260200190815260200160002060003373ffffffffffffffffffffffffffffffffffffffff1673ffffffffffffffffffffffffffffffffffffffff168152602001908152602001600020600860003373ffffffffffffffffffffffffffffffffffffffff1673ffffffffffffffffffffffffffffffffffffffff16815260200190815260200160002090806001815401808255809150506001900390600052602060002090600602016000909190919091506000820160009054906101000a900473ffffffffffffffffffffffffffffffffffffffff168160000160006101000a81548173ffffffffffffffffffffffffffffffffffffffff021916908373ffffffffffffffffffffffffffffffffffffffff1602179055506001820160009054906101000a900473ffffffffffffffffffffffffffffffffffffffff168160010160006101000a81548173ffffffffffffffffffffffffffffffffffffffff021916908373ffffffffffffffffffffffffffffffffffffffff16021790555060028201548160020155600382015481600301556004820160009054906101000a900460ff168160040160006101000a81548160ff0219169083151502179055506004820160019054906101000a900460ff168160040160016101000a81548160ff021916908315150217905550600582015481600501555050600e6000815480929190611e1b90613296565b9190505550604051611e2c90612dcb565b60405180910390207fa7fc44b1de85d88eebde64ed28aa0d7b98018497417f8181cd962d9c8052351e3334604051611e65929190612e7f565b60405180910390a250565b6000600c6000815480929190611e8590613296565b9190505550600c5460016000600c548152602001908152602001600020600401819055503360016000600c54815260200190815260200160002060000160006101000a81548173ffffffffffffffffffffffffffffffffffffffff021916908373ffffffffffffffffffffffffffffffffffffffff1602179055508260016000600c5481526020019081526020016000206001019080519060200190611f2c9291906126cf565b508160016000600c5481526020019081526020016000206002019080519060200190611f599291906126cf565b50600060016000600c548152602001908152602001600020600301819055506001806000600c54815260200190815260200160002060050160006101000a81548160ff021916908315150217905550600260006001815260200190815260200160002060016000600c54815260200190815260200160002090806001815401808255809150506001900390600052602060002090600602016000909190919091506000820160009054906101000a900473ffffffffffffffffffffffffffffffffffffffff168160000160006101000a81548173ffffffffffffffffffffffffffffffffffffffff021916908373ffffffffffffffffffffffffffffffffffffffff160217905550600182018160010190805461207590613233565b612080929190612755565b50600282018160020190805461209590613233565b6120a0929190612755565b5060038201548160030155600482015481600401556005820160009054906101000a900460ff168160050160006101000a81548160ff0219169083151502179055505050600360003373ffffffffffffffffffffffffffffffffffffffff1673ffffffffffffffffffffffffffffffffffffffff16815260200190815260200160002060016000600c54815260200190815260200160002090806001815401808255809150506001900390600052602060002090600602016000909190919091506000820160009054906101000a900473ffffffffffffffffffffffffffffffffffffffff168160000160006101000a81548173ffffffffffffffffffffffffffffffffffffffff021916908373ffffffffffffffffffffffffffffffffffffffff16021790555060018201816001019080546121dc90613233565b6121e7929190612755565b5060028201816002019080546121fc90613233565b612207929190612755565b5060038201548160030155600482015481600401556005820160009054906101000a900460ff168160050160006101000a81548160ff02191690831515021790555050503360046000600c54815260200190815260200160002060006101000a81548173ffffffffffffffffffffffffffffffffffffffff021916908373ffffffffffffffffffffffffffffffffffffffff1602179055506040516122ab90612de0565b60405180910390207f8d8eef38bd915f5dd8c0365870eafe187176b90451422aa7c8bb06d06c9e3013600c546040516122e49190612fcb565b60405180910390a2600c54905092915050565b60606001600083815260200190815260200160002060050160009054906101000a900460ff1661235c576040517f08c379a000000000000000000000000000000000000000000000000000000000815260040161235390612f4b565b60405180910390fd5b60016000838152602001908152602001600020600201805461237d90613233565b80601f01602080910402602001604051908101604052809291908181526020018280546123a990613233565b80156123f65780601f106123cb576101008083540402835291602001916123f6565b820191906000526020600020905b8154815290600101906020018083116123d957829003601f168201915b50505050509050919050565b60008054906101000a900473ffffffffffffffffffffffffffffffffffffffff1681565b600c5481565b60006005600083815260200190815260200160002060040160019054906101000a900460ff16612491576040517f08c379a000000000000000000000000000000000000000000000000000000000815260040161248890612f4b565b60405180910390fd5b60016000838152602001908152602001600020600301549050919050565b600d5481565b60606002600060018152602001908152602001600020805480602002602001604051908101604052809291908181526020016000905b828210156126c657838290600052602060002090600602016040518060c00160405290816000820160009054906101000a900473ffffffffffffffffffffffffffffffffffffffff1673ffffffffffffffffffffffffffffffffffffffff1673ffffffffffffffffffffffffffffffffffffffff16815260200160018201805461257490613233565b80601f01602080910402602001604051908101604052809291908181526020018280546125a090613233565b80156125ed5780601f106125c2576101008083540402835291602001916125ed565b820191906000526020600020905b8154815290600101906020018083116125d057829003601f168201915b5050505050815260200160028201805461260690613233565b80601f016020809104026020016040519081016040528092919081815260200182805461263290613233565b801561267f5780601f106126545761010080835404028352916020019161267f565b820191906000526020600020905b81548152906001019060200180831161266257829003601f168201915b5050505050815260200160038201548152602001600482015481526020016005820160009054906101000a900460ff161515151581525050815260200190600101906124eb565b50505050905090565b8280546126db90613233565b90600052602060002090601f0160209004810192826126fd5760008555612744565b82601f1061271657805160ff1916838001178555612744565b82800160010185558215612744579182015b82811115612743578251825591602001919060010190612728565b5b50905061275191906127e2565b5090565b82805461276190613233565b90600052602060002090601f01602090048101928261278357600085556127d1565b82601f1061279457805485556127d1565b828001600101855582156127d157600052602060002091601f016020900482015b828111156127d05782548255916001019190600101906127b5565b5b5090506127de91906127e2565b5090565b5b808211156127fb5760008160009055506001016127e3565b5090565b600061281261280d8461300b565b612fe6565b90508281526020810184848401111561282e5761282d6133a0565b5b6128398482856131f1565b509392505050565b600081359050612850816134b6565b92915050565b600082601f83011261286b5761286a61339b565b5b813561287b8482602086016127ff565b91505092915050565b600081359050612893816134cd565b92915050565b6000602082840312156128af576128ae6133aa565b5b60006128bd84828501612841565b91505092915050565b600080604083850312156128dd576128dc6133aa565b5b600083013567ffffffffffffffff8111156128fb576128fa6133a5565b5b61290785828601612856565b925050602083013567ffffffffffffffff811115612928576129276133a5565b5b61293485828601612856565b9150509250929050565b600060208284031215612954576129536133aa565b5b600061296284828501612884565b91505092915050565b60006129778383612c60565b905092915050565b600061298b8383612cf0565b60408301905092915050565b60006129a38383612d1f565b60e08301905092915050565b6129b8816131a9565b82525050565b6129c7816131a9565b82525050565b60006129d88261306c565b6129e281856130bf565b9350836020820285016129f48561303c565b8060005b85811015612a305784840389528151612a11858261296b565b9450612a1c83613098565b925060208a019950506001810190506129f8565b50829750879550505050505092915050565b6000612a4d82613077565b612a5781856130d0565b9350612a628361304c565b8060005b83811015612a93578151612a7a888261297f565b9750612a85836130a5565b925050600181019050612a66565b5085935050505092915050565b6000612aab82613082565b612ab581856130e1565b9350612ac08361305c565b8060005b83811015612af1578151612ad88882612997565b9750612ae3836130b2565b925050600181019050612ac4565b5085935050505092915050565b612b07816131bb565b82525050565b612b16816131bb565b82525050565b6000612b278261308d565b612b3181856130f2565b9350612b41818560208601613200565b612b4a816133af565b840191505092915050565b6000612b608261308d565b612b6a8185613103565b9350612b7a818560208601613200565b612b83816133af565b840191505092915050565b6000612b9b600683613114565b9150612ba6826133c0565b600682019050919050565b6000612bbe600e83613103565b9150612bc9826133e9565b602082019050919050565b6000612be1601f83613103565b9150612bec82613412565b602082019050919050565b6000612c04601583613103565b9150612c0f8261343b565b602082019050919050565b6000612c27600783613114565b9150612c3282613464565b600782019050919050565b6000612c4a601b83613103565b9150612c558261348d565b602082019050919050565b600060c083016000830151612c7860008601826129af565b5060208301518482036020860152612c908282612b1c565b91505060408301518482036040860152612caa8282612b1c565b9150506060830151612cbf6060860182612dad565b506080830151612cd26080860182612dad565b5060a0830151612ce560a0860182612afe565b508091505092915050565b604082016000820151612d0660008501826129af565b506020820151612d196020850182612dad565b50505050565b60e082016000820151612d3560008501826129af565b506020820151612d4860208501826129af565b506040820151612d5b6040850182612dad565b506060820151612d6e6060850182612dad565b506080820151612d816080850182612afe565b5060a0820151612d9460a0850182612afe565b5060c0820151612da760c0850182612dad565b50505050565b612db6816131e7565b82525050565b612dc5816131e7565b82525050565b6000612dd682612b8e565b9150819050919050565b6000612deb82612c1a565b9150819050919050565b6000602082019050612e0a60008301846129be565b92915050565b600060c082019050612e2560008301896129be565b8181036020830152612e378188612b55565b90508181036040830152612e4b8187612b55565b9050612e5a6060830186612dbc565b612e676080830185612dbc565b612e7460a0830184612b0d565b979650505050505050565b6000604082019050612e9460008301856129be565b612ea16020830184612dbc565b9392505050565b60006020820190508181036000830152612ec281846129cd565b905092915050565b60006020820190508181036000830152612ee48184612a42565b905092915050565b60006020820190508181036000830152612f068184612aa0565b905092915050565b6000602082019050612f236000830184612b0d565b92915050565b60006020820190508181036000830152612f438184612b55565b905092915050565b60006020820190508181036000830152612f6481612bb1565b9050919050565b60006020820190508181036000830152612f8481612bd4565b9050919050565b60006020820190508181036000830152612fa481612bf7565b9050919050565b60006020820190508181036000830152612fc481612c3d565b9050919050565b6000602082019050612fe06000830184612dbc565b92915050565b6000612ff0613001565b9050612ffc8282613265565b919050565b6000604051905090565b600067ffffffffffffffff8211156130265761302561336c565b5b61302f826133af565b9050602081019050919050565b6000819050602082019050919050565b6000819050602082019050919050565b6000819050602082019050919050565b600081519050919050565b600081519050919050565b600081519050919050565b600081519050919050565b6000602082019050919050565b6000602082019050919050565b6000602082019050919050565b600082825260208201905092915050565b600082825260208201905092915050565b600082825260208201905092915050565b600082825260208201905092915050565b600082825260208201905092915050565b600081905092915050565b600061312a826131e7565b9150613135836131e7565b9250827fffffffffffffffffffffffffffffffffffffffffffffffffffffffffffffffff0382111561316a576131696132df565b5b828201905092915050565b6000613180826131e7565b915061318b836131e7565b92508282101561319e5761319d6132df565b5b828203905092915050565b60006131b4826131c7565b9050919050565b60008115159050919050565b600073ffffffffffffffffffffffffffffffffffffffff82169050919050565b6000819050919050565b82818337600083830152505050565b60005b8381101561321e578082015181840152602081019050613203565b8381111561322d576000848401525b50505050565b6000600282049050600182168061324b57607f821691505b6020821081141561325f5761325e61330e565b5b50919050565b61326e826133af565b810181811067ffffffffffffffff8211171561328d5761328c61336c565b5b80604052505050565b60006132a1826131e7565b91507fffffffffffffffffffffffffffffffffffffffffffffffffffffffffffffffff8214156132d4576132d36132df565b5b600182019050919050565b7f4e487b7100000000000000000000000000000000000000000000000000000000600052601160045260246000fd5b7f4e487b7100000000000000000000000000000000000000000000000000000000600052602260045260246000fd5b7f4e487b7100000000000000000000000000000000000000000000000000000000600052603260045260246000fd5b7f4e487b7100000000000000000000000000000000000000000000000000000000600052604160045260246000fd5b600080fd5b600080fd5b600080fd5b600080fd5b6000601f19601f8301169050919050565b7f5265776172640000000000000000000000000000000000000000000000000000600082015250565b7f6e657773206e6f74206578697374000000000000000000000000000000000000600082015250565b7f7265776172642076616c7565206e65656420677261746572207468616e203000600082015250565b7f6f6e6c7920686f73742063616e20646f20746869730000000000000000000000600082015250565b7f4e65777341646400000000000000000000000000000000000000000000000000600082015250565b7f686f73742063616e206e6f74207265776172642068696d73656c660000000000600082015250565b6134bf816131a9565b81146134ca57600080fd5b50565b6134d6816131e7565b81146134e157600080fd5b5056fea2646970667358221220738ffecb40184d0d6b26f327770325246cd86c89b2aab62501c24ce79c73ced064736f6c63430008050033",
  "immutableReferences": {},
  "source": "//SPDX-License-Identifier: UNLICENSED\r\nimport \"../contracts copy/token/ERC20/ERC20.sol\";\r\npragma solidity ^0.8.0;\r\n\r\ncontract MyToken is ERC20 {\r\n    //constructor\r\n    constructor() ERC20(\"dai\", \"dai\") {\r\n        //\r\n        _mint(msg.sender, 100 * 10**uint256(decimals()));\r\n    }\r\n\r\n    function getDEctmals() public view returns (uint256) {\r\n        return decimals();\r\n    }\r\n}\r\n\r\ncontract NewsContract_daijiatao {\r\n    //\r\n    address public host_daijiatao;\r\n    //\r\n    // MyToken erc;\r\n\r\n    //\r\n    struct News_daijiatao {\r\n        address host;\r\n        string title;\r\n        string newsCxt;\r\n        uint256 accumulate;\r\n        uint256 newsKey;\r\n        bool exist;\r\n    }\r\n\r\n    //\r\n    struct news_reward {\r\n        address host;\r\n        address host_reward;\r\n        uint256 newsKey;\r\n        uint256 reward_money;\r\n        bool new_reward;\r\n        bool exist;\r\n        uint256 number;\r\n        //  mapping(uint =>News_daijiatao) newsData_daijiatao;\r\n    }\r\n    struct hosts_reward {\r\n        address host; //\r\n        uint256 newsKey; //\r\n    }\r\n    //\r\n    mapping(uint256 => News_daijiatao) public newsData_daijiatao;\r\n    mapping(uint256 => News_daijiatao[]) newsData_group_daijiatao;\r\n    mapping(address=>News_daijiatao[]) newsData_address_group_daijiatao;\r\n    //\r\n    mapping(uint256 => address) news_host_daijiatao;\r\n\r\n    //(uint)\r\n    mapping(uint256 => news_reward) newsData_reward;\r\n    mapping(uint256 => news_reward[]) newsData_group_reward;\r\n    mapping(uint256 => mapping(address => news_reward[])) newsData_group_rewardM;\r\n\r\n    //(address)\r\n    mapping(address => news_reward) news_address_reward;\r\n    mapping(address => news_reward[]) news_address_group_reward;\r\n\r\n    //\r\n    mapping(uint256 => hosts_reward) hostsData_reward;\r\n    mapping(uint256 => hosts_reward[]) hostsData_group_reward;\r\n    //\r\n    uint256 public newsCnt_daijiatao;\r\n    //Key\r\n\r\n    uint256 public maxRewardNews_daijiatao;\r\n\r\n    //\r\n    uint256 public reward;\r\n\r\n    //\r\n    event AddNewsEvt(string indexed eventType, uint256 newsKey);\r\n\r\n    //\r\n    event RewardEvt(string indexed eventType, address sender, uint256 value);\r\n\r\n    //\r\n    constructor() {\r\n        host_daijiatao = msg.sender;\r\n        // erc = MyToken(_erc20);\r\n    }\r\n\r\n    //\r\n    modifier onlyHost_daijiatao(uint256 newsKey) {\r\n        require(\r\n            msg.sender == news_host_daijiatao[newsKey],\r\n            \"only host can do this\"\r\n        );\r\n        _;\r\n    }\r\n\r\n   \r\n\r\n    //\r\n    function addNews(string memory title, string memory newsCxt)\r\n        public\r\n        returns (uint256)\r\n    {\r\n        newsCnt_daijiatao++;\r\n           newsData_daijiatao[newsCnt_daijiatao].newsKey=newsCnt_daijiatao;\r\n        newsData_daijiatao[newsCnt_daijiatao].host = msg.sender;\r\n        newsData_daijiatao[newsCnt_daijiatao].title = title;\r\n        newsData_daijiatao[newsCnt_daijiatao].newsCxt = newsCxt;\r\n        newsData_daijiatao[newsCnt_daijiatao].accumulate = 0;\r\n        newsData_daijiatao[newsCnt_daijiatao].exist = true;\r\n\r\n        newsData_group_daijiatao[1].push(\r\n            newsData_daijiatao[newsCnt_daijiatao]\r\n        );\r\n        newsData_address_group_daijiatao[msg.sender].push( newsData_daijiatao[newsCnt_daijiatao]);\r\n        news_host_daijiatao[newsCnt_daijiatao] = msg.sender;\r\n\r\n\r\n        emit AddNewsEvt(\"NewsAdd\", newsCnt_daijiatao);\r\n        return newsCnt_daijiatao;\r\n    }\r\n\r\n    //\r\n    function rewardNews(uint256 newsKey) public  payable {\r\n \r\n        //\r\n        require(msg.sender !=newsData_daijiatao[newsKey].host, \"host can not reward himself\");\r\n\r\n        //0\r\n            require(msg.value > 0, \"reward value need grater than 0\");\r\n\r\n        //\r\n        require(newsData_daijiatao[newsKey].exist, \"news not exist\");\r\n\r\n        //\r\n        newsData_daijiatao[newsKey].accumulate += msg.value;\r\n   \r\n         newsData_address_group_daijiatao[newsData_daijiatao[newsKey].host][newsKey-1].accumulate +=msg.value;\r\n        //\r\n        if (\r\n            newsData_daijiatao[newsKey].accumulate >\r\n            newsData_daijiatao[maxRewardNews_daijiatao].accumulate\r\n        ) {\r\n            maxRewardNews_daijiatao = newsKey;\r\n        }\r\n        if (news_address_reward[msg.sender].exist != true) {\r\n            hostsData_reward[newsKey].host = msg.sender;\r\n            hostsData_group_reward[newsKey].push(hostsData_reward[newsKey]);\r\n        }\r\n   \r\n\r\n        news_address_reward[msg.sender].newsKey = newsKey;\r\n        news_address_reward[msg.sender].host = news_host_daijiatao[newsKey];\r\n        news_address_reward[msg.sender].host_reward = msg.sender;\r\n        news_address_reward[msg.sender].reward_money += msg.value;\r\n        news_address_reward[msg.sender].exist = true;\r\n        news_address_reward[msg.sender].number += 1;\r\n        news_address_group_reward[msg.sender].push(\r\n            news_address_reward[msg.sender]\r\n        );\r\n\r\n        newsData_reward[newsKey].newsKey = newsKey;\r\n        newsData_reward[newsKey].host = news_host_daijiatao[newsKey];\r\n        newsData_reward[newsKey].host_reward = msg.sender;\r\n        newsData_reward[newsKey].reward_money += msg.value;\r\n        newsData_reward[newsKey].exist = true;\r\n        newsData_reward[newsKey].number += 1;\r\n\r\n        newsData_group_reward[newsKey].push(newsData_reward[newsKey]);\r\n        newsData_group_rewardM[newsKey][msg.sender].push(\r\n            news_address_reward[msg.sender]\r\n        );\r\n\r\n        reward++;\r\n\r\n\r\n        //\r\n        emit RewardEvt(\"Reward\", msg.sender, msg.value);\r\n    }\r\n\r\n    // \r\n    function returnMoney(uint256 ID) public returns (address) {\r\n        //\r\n        require(ID <= newsCnt_daijiatao && ID >= 1);\r\n        //\r\n        require(newsData_reward[ID].exist == true);\r\n\r\n        news_reward[] storage f = newsData_group_rewardM[ID][msg.sender];\r\n        // for(uint i=; i<=news_reward; i++)\r\n        if (f[0].host_reward == msg.sender) {\r\n            //    payable(f[f.length-1].host_reward).transfer(f[f.length-1].reward_money);\r\n            newsData_daijiatao[ID].accumulate -= f[f.length - 1].reward_money;\r\n            payable(f[f.length - 1].host_reward).transfer(f[f.length - 1].reward_money);\r\n            f[f.length - 1].reward_money = 0;\r\n             newsData_address_group_daijiatao[newsData_daijiatao[ID].host][ID-1].accumulate -=news_address_reward[msg.sender].reward_money;\r\n\r\n        }\r\n\r\n        return f[f.length - 1].host_reward;\r\n    }\r\n\r\n\r\n  //\r\n    function isNewsExist(uint256 newsKey) public view returns (bool) {\r\n        return newsData_daijiatao[newsKey].exist;\r\n    }\r\n    //\r\n     function newsData_addNews_group() public view returns (News_daijiatao[] memory) {\r\n        return newsData_group_daijiatao[1];\r\n    }\r\n\r\n  \r\n//\r\n     function newsData_address_group(address a) public view returns (News_daijiatao[] memory) {\r\n        return (newsData_address_group_daijiatao[a]);\r\n    }\r\n\r\n\r\n \r\n\r\n//\r\n    function queryRewardAddressAll(uint256 newsKey)\r\n        public\r\n        view\r\n        returns (hosts_reward[] memory)\r\n    {\r\n        //\r\n        require(newsData_reward[newsKey].exist, \"news not exist\");\r\n        return hostsData_group_reward[newsKey];\r\n    }\r\n\r\n    //\r\n    function queryCtx(uint256 newsKey)\r\n        public\r\n        view\r\n        returns (string memory)\r\n    {\r\n        //\r\n        require(newsData_daijiatao[newsKey].exist, \"news not exist\");\r\n        return (newsData_daijiatao[newsKey].newsCxt);\r\n    }\r\n\r\n    //\r\n    function queryReward_Money(uint256 newsKey) public view returns (uint256) {\r\n        //\r\n        require(newsData_reward[newsKey].exist, \"news not exist\");\r\n        return newsData_daijiatao[newsKey].accumulate;\r\n    }\r\n      //\r\n    function queryRewarUintdAll(uint256 newsKey)\r\n        public\r\n        view\r\n        returns (news_reward[] memory)\r\n    {\r\n        //\r\n        require(newsData_reward[newsKey].exist, \"news not exist\");\r\n        news_reward[] memory group = newsData_group_reward[newsKey];\r\n        return group;\r\n    }\r\n\r\n\r\n\r\n    //\r\n    function getReward(uint256 newsKey) public onlyHost_daijiatao(newsKey) {\r\n      require(  newsData_reward[newsKey].exist == true);\r\n        payable(newsData_daijiatao[newsKey].host).transfer(newsData_daijiatao[newsKey].accumulate);\r\n    }\r\n}\r\n ",
  "sourcePath": "C:\\Users\\HuaWei\\Desktop\\\\\\truffle\\contracts\\news.sol",
  "compiler": {
    "name": "solc",
    "version": "0.8.5+commit.a4f2e591.Emscripten.clang"
  },
  "schemaVersion": "3.4.3",
  "updatedAt": "2021-12-11T16:29:22.565Z",
  "networkType": "ethereum",
  "devdoc": {
    "kind": "dev",
    "methods": {},
    "version": 1
  },
  "userdoc": {
    "kind": "user",
    "methods": {},
    "version": 1
  }
}